{
  "contractName": "MasterVault",
  "abi": [
    {
      "inputs": [
        {
          "internalType": "contract IBEP20",
          "name": "_payb",
          "type": "address"
        },
        {
          "internalType": "contract PaybVirtualToken",
          "name": "_paybVirtual",
          "type": "address"
        },
        {
          "internalType": "uint256",
          "name": "_paybPerBlock",
          "type": "uint256"
        },
        {
          "internalType": "uint256",
          "name": "_startBlock",
          "type": "uint256"
        },
        {
          "internalType": "address",
          "name": "_treasury",
          "type": "address"
        }
      ],
      "stateMutability": "nonpayable",
      "type": "constructor"
    },
    {
      "anonymous": false,
      "inputs": [
        {
          "indexed": true,
          "internalType": "address",
          "name": "token",
          "type": "address"
        },
        {
          "indexed": false,
          "internalType": "uint256",
          "name": "points",
          "type": "uint256"
        }
      ],
      "name": "AddPool",
      "type": "event"
    },
    {
      "anonymous": false,
      "inputs": [
        {
          "indexed": true,
          "internalType": "address",
          "name": "user",
          "type": "address"
        },
        {
          "indexed": true,
          "internalType": "uint256",
          "name": "pid",
          "type": "uint256"
        },
        {
          "indexed": false,
          "internalType": "uint256",
          "name": "amount",
          "type": "uint256"
        }
      ],
      "name": "Deposit",
      "type": "event"
    },
    {
      "anonymous": false,
      "inputs": [
        {
          "indexed": true,
          "internalType": "address",
          "name": "user",
          "type": "address"
        },
        {
          "indexed": true,
          "internalType": "uint256",
          "name": "pid",
          "type": "uint256"
        },
        {
          "indexed": false,
          "internalType": "uint256",
          "name": "amount",
          "type": "uint256"
        }
      ],
      "name": "EmergencyWithdraw",
      "type": "event"
    },
    {
      "anonymous": false,
      "inputs": [
        {
          "indexed": false,
          "internalType": "uint256",
          "name": "fee",
          "type": "uint256"
        }
      ],
      "name": "FeeUpdate",
      "type": "event"
    },
    {
      "anonymous": false,
      "inputs": [
        {
          "indexed": false,
          "internalType": "uint256",
          "name": "multiplier",
          "type": "uint256"
        }
      ],
      "name": "MultiplierUpdate",
      "type": "event"
    },
    {
      "anonymous": false,
      "inputs": [
        {
          "indexed": true,
          "internalType": "address",
          "name": "previousOwner",
          "type": "address"
        },
        {
          "indexed": true,
          "internalType": "address",
          "name": "newOwner",
          "type": "address"
        }
      ],
      "name": "OwnershipTransferred",
      "type": "event"
    },
    {
      "anonymous": false,
      "inputs": [
        {
          "indexed": false,
          "internalType": "uint256",
          "name": "period",
          "type": "uint256"
        }
      ],
      "name": "PeriodUpdate",
      "type": "event"
    },
    {
      "anonymous": false,
      "inputs": [
        {
          "indexed": true,
          "internalType": "uint256",
          "name": "pid",
          "type": "uint256"
        },
        {
          "indexed": false,
          "internalType": "uint256",
          "name": "points",
          "type": "uint256"
        }
      ],
      "name": "SetPool",
      "type": "event"
    },
    {
      "anonymous": false,
      "inputs": [
        {
          "indexed": true,
          "internalType": "address",
          "name": "user",
          "type": "address"
        },
        {
          "indexed": true,
          "internalType": "uint256",
          "name": "pid",
          "type": "uint256"
        },
        {
          "indexed": false,
          "internalType": "uint256",
          "name": "amount",
          "type": "uint256"
        }
      ],
      "name": "Stake",
      "type": "event"
    },
    {
      "anonymous": false,
      "inputs": [
        {
          "indexed": true,
          "internalType": "address",
          "name": "supplier",
          "type": "address"
        }
      ],
      "name": "SupplierUpdate",
      "type": "event"
    },
    {
      "anonymous": false,
      "inputs": [
        {
          "indexed": true,
          "internalType": "address",
          "name": "user",
          "type": "address"
        },
        {
          "indexed": true,
          "internalType": "uint256",
          "name": "pid",
          "type": "uint256"
        },
        {
          "indexed": false,
          "internalType": "uint256",
          "name": "amount",
          "type": "uint256"
        }
      ],
      "name": "Unstake",
      "type": "event"
    },
    {
      "anonymous": false,
      "inputs": [
        {
          "indexed": true,
          "internalType": "address",
          "name": "user",
          "type": "address"
        },
        {
          "indexed": true,
          "internalType": "uint256",
          "name": "pid",
          "type": "uint256"
        },
        {
          "indexed": false,
          "internalType": "uint256",
          "name": "amount",
          "type": "uint256"
        }
      ],
      "name": "Withdraw",
      "type": "event"
    },
    {
      "inputs": [],
      "name": "MAX_MULTIPLIER",
      "outputs": [
        {
          "internalType": "uint256",
          "name": "",
          "type": "uint256"
        }
      ],
      "stateMutability": "view",
      "type": "function"
    },
    {
      "inputs": [],
      "name": "MAX_POOL_LENGTH",
      "outputs": [
        {
          "internalType": "uint256",
          "name": "",
          "type": "uint256"
        }
      ],
      "stateMutability": "view",
      "type": "function"
    },
    {
      "inputs": [],
      "name": "MAX_UNSTAKE_FEE",
      "outputs": [
        {
          "internalType": "uint256",
          "name": "",
          "type": "uint256"
        }
      ],
      "stateMutability": "view",
      "type": "function"
    },
    {
      "inputs": [],
      "name": "MAX_UNSTAKE_PERIOD",
      "outputs": [
        {
          "internalType": "uint256",
          "name": "",
          "type": "uint256"
        }
      ],
      "stateMutability": "view",
      "type": "function"
    },
    {
      "inputs": [
        {
          "internalType": "address",
          "name": "",
          "type": "address"
        }
      ],
      "name": "cooldownPeriodEnd",
      "outputs": [
        {
          "internalType": "uint256",
          "name": "",
          "type": "uint256"
        }
      ],
      "stateMutability": "view",
      "type": "function"
    },
    {
      "inputs": [],
      "name": "masterSupplier",
      "outputs": [
        {
          "internalType": "address",
          "name": "",
          "type": "address"
        }
      ],
      "stateMutability": "view",
      "type": "function"
    },
    {
      "inputs": [],
      "name": "owner",
      "outputs": [
        {
          "internalType": "address",
          "name": "",
          "type": "address"
        }
      ],
      "stateMutability": "view",
      "type": "function"
    },
    {
      "inputs": [],
      "name": "payb",
      "outputs": [
        {
          "internalType": "contract IBEP20",
          "name": "",
          "type": "address"
        }
      ],
      "stateMutability": "view",
      "type": "function"
    },
    {
      "inputs": [],
      "name": "paybPerBlock",
      "outputs": [
        {
          "internalType": "uint256",
          "name": "",
          "type": "uint256"
        }
      ],
      "stateMutability": "view",
      "type": "function"
    },
    {
      "inputs": [],
      "name": "paybVirtual",
      "outputs": [
        {
          "internalType": "contract PaybVirtualToken",
          "name": "",
          "type": "address"
        }
      ],
      "stateMutability": "view",
      "type": "function"
    },
    {
      "inputs": [
        {
          "internalType": "address",
          "name": "",
          "type": "address"
        }
      ],
      "name": "poolExistance",
      "outputs": [
        {
          "internalType": "bool",
          "name": "",
          "type": "bool"
        }
      ],
      "stateMutability": "view",
      "type": "function"
    },
    {
      "inputs": [
        {
          "internalType": "uint256",
          "name": "",
          "type": "uint256"
        }
      ],
      "name": "poolInfo",
      "outputs": [
        {
          "internalType": "contract IBEP20",
          "name": "lpToken",
          "type": "address"
        },
        {
          "internalType": "uint256",
          "name": "allocPoint",
          "type": "uint256"
        },
        {
          "internalType": "uint256",
          "name": "lastRewardBlock",
          "type": "uint256"
        },
        {
          "internalType": "uint256",
          "name": "accPaybPerShare",
          "type": "uint256"
        }
      ],
      "stateMutability": "view",
      "type": "function"
    },
    {
      "inputs": [],
      "name": "renounceOwnership",
      "outputs": [],
      "stateMutability": "nonpayable",
      "type": "function"
    },
    {
      "inputs": [],
      "name": "rewardMultiplier",
      "outputs": [
        {
          "internalType": "uint256",
          "name": "",
          "type": "uint256"
        }
      ],
      "stateMutability": "view",
      "type": "function"
    },
    {
      "inputs": [],
      "name": "startBlock",
      "outputs": [
        {
          "internalType": "uint256",
          "name": "",
          "type": "uint256"
        }
      ],
      "stateMutability": "view",
      "type": "function"
    },
    {
      "inputs": [],
      "name": "totalAllocPoint",
      "outputs": [
        {
          "internalType": "uint256",
          "name": "",
          "type": "uint256"
        }
      ],
      "stateMutability": "view",
      "type": "function"
    },
    {
      "inputs": [
        {
          "internalType": "address",
          "name": "newOwner",
          "type": "address"
        }
      ],
      "name": "transferOwnership",
      "outputs": [],
      "stateMutability": "nonpayable",
      "type": "function"
    },
    {
      "inputs": [],
      "name": "treasury",
      "outputs": [
        {
          "internalType": "address",
          "name": "",
          "type": "address"
        }
      ],
      "stateMutability": "view",
      "type": "function"
    },
    {
      "inputs": [],
      "name": "unstakeFee",
      "outputs": [
        {
          "internalType": "uint256",
          "name": "",
          "type": "uint256"
        }
      ],
      "stateMutability": "view",
      "type": "function"
    },
    {
      "inputs": [],
      "name": "unstakePeriod",
      "outputs": [
        {
          "internalType": "uint256",
          "name": "",
          "type": "uint256"
        }
      ],
      "stateMutability": "view",
      "type": "function"
    },
    {
      "inputs": [
        {
          "internalType": "uint256",
          "name": "",
          "type": "uint256"
        },
        {
          "internalType": "address",
          "name": "",
          "type": "address"
        }
      ],
      "name": "userInfo",
      "outputs": [
        {
          "internalType": "uint256",
          "name": "amount",
          "type": "uint256"
        },
        {
          "internalType": "uint256",
          "name": "rewardDebt",
          "type": "uint256"
        }
      ],
      "stateMutability": "view",
      "type": "function"
    },
    {
      "inputs": [
        {
          "internalType": "address",
          "name": "newSupplier",
          "type": "address"
        }
      ],
      "name": "updateMasterSupplier",
      "outputs": [],
      "stateMutability": "nonpayable",
      "type": "function"
    },
    {
      "inputs": [
        {
          "internalType": "uint256",
          "name": "multiplierNumber",
          "type": "uint256"
        }
      ],
      "name": "updateMultiplier",
      "outputs": [],
      "stateMutability": "nonpayable",
      "type": "function"
    },
    {
      "inputs": [
        {
          "internalType": "uint256",
          "name": "_unstakePeriod",
          "type": "uint256"
        }
      ],
      "name": "setUnstakePeriod",
      "outputs": [],
      "stateMutability": "nonpayable",
      "type": "function"
    },
    {
      "inputs": [
        {
          "internalType": "uint256",
          "name": "_unstakeFee",
          "type": "uint256"
        }
      ],
      "name": "setUnstakeFee",
      "outputs": [],
      "stateMutability": "nonpayable",
      "type": "function"
    },
    {
      "inputs": [
        {
          "internalType": "uint256",
          "name": "_allocPoint",
          "type": "uint256"
        },
        {
          "internalType": "contract IBEP20",
          "name": "_lpToken",
          "type": "address"
        },
        {
          "internalType": "bool",
          "name": "_withUpdate",
          "type": "bool"
        }
      ],
      "name": "add",
      "outputs": [],
      "stateMutability": "nonpayable",
      "type": "function"
    },
    {
      "inputs": [
        {
          "internalType": "uint256",
          "name": "_pid",
          "type": "uint256"
        },
        {
          "internalType": "uint256",
          "name": "_allocPoint",
          "type": "uint256"
        },
        {
          "internalType": "bool",
          "name": "_withUpdate",
          "type": "bool"
        }
      ],
      "name": "set",
      "outputs": [],
      "stateMutability": "nonpayable",
      "type": "function"
    },
    {
      "inputs": [
        {
          "internalType": "uint256",
          "name": "_pid",
          "type": "uint256"
        },
        {
          "internalType": "uint256",
          "name": "_amount",
          "type": "uint256"
        }
      ],
      "name": "deposit",
      "outputs": [],
      "stateMutability": "nonpayable",
      "type": "function"
    },
    {
      "inputs": [
        {
          "internalType": "uint256",
          "name": "_pid",
          "type": "uint256"
        },
        {
          "internalType": "uint256",
          "name": "_amount",
          "type": "uint256"
        }
      ],
      "name": "withdraw",
      "outputs": [],
      "stateMutability": "nonpayable",
      "type": "function"
    },
    {
      "inputs": [
        {
          "internalType": "uint256",
          "name": "_amount",
          "type": "uint256"
        }
      ],
      "name": "enterStaking",
      "outputs": [],
      "stateMutability": "nonpayable",
      "type": "function"
    },
    {
      "inputs": [],
      "name": "poolLength",
      "outputs": [
        {
          "internalType": "uint256",
          "name": "",
          "type": "uint256"
        }
      ],
      "stateMutability": "view",
      "type": "function"
    },
    {
      "inputs": [
        {
          "internalType": "uint256",
          "name": "_amount",
          "type": "uint256"
        }
      ],
      "name": "leaveStaking",
      "outputs": [],
      "stateMutability": "nonpayable",
      "type": "function"
    },
    {
      "inputs": [
        {
          "internalType": "uint256",
          "name": "_pid",
          "type": "uint256"
        }
      ],
      "name": "emergencyWithdraw",
      "outputs": [],
      "stateMutability": "nonpayable",
      "type": "function"
    },
    {
      "inputs": [
        {
          "internalType": "address",
          "name": "user",
          "type": "address"
        }
      ],
      "name": "timeToLeaveStaking",
      "outputs": [
        {
          "internalType": "uint256",
          "name": "",
          "type": "uint256"
        }
      ],
      "stateMutability": "view",
      "type": "function"
    },
    {
      "inputs": [
        {
          "internalType": "uint256",
          "name": "_pid",
          "type": "uint256"
        },
        {
          "internalType": "address",
          "name": "_user",
          "type": "address"
        }
      ],
      "name": "pendingPayb",
      "outputs": [
        {
          "internalType": "uint256",
          "name": "",
          "type": "uint256"
        }
      ],
      "stateMutability": "view",
      "type": "function"
    },
    {
      "inputs": [],
      "name": "currentSupplierAllowance",
      "outputs": [
        {
          "internalType": "uint256",
          "name": "",
          "type": "uint256"
        }
      ],
      "stateMutability": "view",
      "type": "function"
    },
    {
      "inputs": [
        {
          "internalType": "uint256",
          "name": "poolNum",
          "type": "uint256"
        },
        {
          "internalType": "uint256",
          "name": "blocks",
          "type": "uint256"
        }
      ],
      "name": "getPoolInvervalReturn",
      "outputs": [
        {
          "internalType": "uint256",
          "name": "",
          "type": "uint256"
        }
      ],
      "stateMutability": "view",
      "type": "function"
    },
    {
      "inputs": [],
      "name": "massUpdatePools",
      "outputs": [],
      "stateMutability": "nonpayable",
      "type": "function"
    },
    {
      "inputs": [
        {
          "internalType": "uint256",
          "name": "_pid",
          "type": "uint256"
        }
      ],
      "name": "updatePool",
      "outputs": [],
      "stateMutability": "nonpayable",
      "type": "function"
    },
    {
      "inputs": [
        {
          "internalType": "uint256",
          "name": "_from",
          "type": "uint256"
        },
        {
          "internalType": "uint256",
          "name": "_to",
          "type": "uint256"
        }
      ],
      "name": "getMultiplier",
      "outputs": [
        {
          "internalType": "uint256",
          "name": "",
          "type": "uint256"
        }
      ],
      "stateMutability": "view",
      "type": "function"
    }
  ],
  "bytecode": "0x6080604052600160055560006009553480156200001b57600080fd5b506040516200428d3803806200428d833981810160405260a08110156200004157600080fd5b81019080805190602001909291908051906020019092919080519060200190929190805190602001909291908051906020019092919050505060006200008c620002ef60201b60201c565b9050806000806101000a81548173ffffffffffffffffffffffffffffffffffffffff021916908373ffffffffffffffffffffffffffffffffffffffff1602179055508073ffffffffffffffffffffffffffffffffffffffff16600073ffffffffffffffffffffffffffffffffffffffff167f8be0079c531659141344cd1fd0a4f28419497f9722a3daafe3b4186f6b6457e060405160405180910390a35084600260006101000a81548173ffffffffffffffffffffffffffffffffffffffff021916908373ffffffffffffffffffffffffffffffffffffffff16021790555083600360006101000a81548173ffffffffffffffffffffffffffffffffffffffff021916908373ffffffffffffffffffffffffffffffffffffffff1602179055508260048190555081600a819055506203f480600c819055506064600d8190555080600e60006101000a81548173ffffffffffffffffffffffffffffffffffffffff021916908373ffffffffffffffffffffffffffffffffffffffff160217905550600660405180608001604052808773ffffffffffffffffffffffffffffffffffffffff1681526020016103e88152602001600a5481526020016000815250908060018154018082558091505060019003906000526020600020906004020160009091909190915060008201518160000160006101000a81548173ffffffffffffffffffffffffffffffffffffffff021916908373ffffffffffffffffffffffffffffffffffffffff16021790555060208201518160010155604082015181600201556060820151816003015550506103e86009819055505050505050620002f7565b600033905090565b613f8680620003076000396000f3fe608060405234801561001057600080fd5b50600436106102475760003560e01c806361d027b31161013b57806393f1a40b116100b8578063e2bbb1581161007c578063e2bbb1581461097c578063e3dba009146109b4578063e4aa64ab146109e8578063e9dec6ee14610a06578063f2fde38b14610a3a57610247565b806393f1a40b1461083b5780639f63d20d146108a4578063ada92920146108d8578063badec1a5146108f6578063c97a184f1461094e57610247565b80637d94cab8116100ff5780637d94cab8146106eb578063824fc175146107435780638da5cb5b1461079d5780638dbb1e3a146107d15780638ea97d261461081d57610247565b806361d027b314610641578063630b5ba11461067557806364482f791461067f5780636f2c590a146106c3578063715018a6146106e157610247565b806341441d3b116101c957806351eb05a61161018d57806351eb05a61461057b5780635312ea8e146105a95780635498a24f146105d75780635d6a618d146105f55780635ffe61461461061357610247565b806341441d3b14610495578063431a70cc146104c3578063441a3e701461050757806348cd4cb11461053f5780634ab5d11b1461055d57610247565b80631526fe27116102105780631526fe271461034657806317caf6f1146103b35780631d31bcb6146103d15780631eaaa0451461041d578063218ce67c1461047757610247565b806218a1161461024c5780630411431c1461027a578063081e3eda146102985780630f668f84146102b65780631058d28114610318575b600080fd5b6102786004803603602081101561026257600080fd5b8101908080359060200190929190505050610a7e565b005b610282610be3565b6040518082815260200191505060405180910390f35b6102a0610be9565b6040518082815260200191505060405180910390f35b610302600480360360408110156102cc57600080fd5b8101908080359060200190929190803573ffffffffffffffffffffffffffffffffffffffff169060200190929190505050610bf6565b6040518082815260200191505060405180910390f35b6103446004803603602081101561032e57600080fd5b8101908080359060200190929190505050610e3c565b005b6103726004803603602081101561035c57600080fd5b81019080803590602001909291905050506112b3565b604051808573ffffffffffffffffffffffffffffffffffffffff16815260200184815260200183815260200182815260200194505050505060405180910390f35b6103bb611310565b6040518082815260200191505060405180910390f35b610407600480360360408110156103e757600080fd5b810190808035906020019092919080359060200190929190505050611316565b6040518082815260200191505060405180910390f35b6104756004803603606081101561043357600080fd5b8101908080359060200190929190803573ffffffffffffffffffffffffffffffffffffffff16906020019092919080351515906020019092919050505061139f565b005b61047f6116fa565b6040518082815260200191505060405180910390f35b6104c1600480360360208110156104ab57600080fd5b8101908080359060200190929190505050611700565b005b610505600480360360208110156104d957600080fd5b81019080803573ffffffffffffffffffffffffffffffffffffffff169060200190929190505050611abd565b005b61053d6004803603604081101561051d57600080fd5b810190808035906020019092919080359060200190929190505050611c2e565b005b610547611fc7565b6040518082815260200191505060405180910390f35b610565611fcd565b6040518082815260200191505060405180910390f35b6105a76004803603602081101561059157600080fd5b8101908080359060200190929190505050611fd4565b005b6105d5600480360360208110156105bf57600080fd5b8101908080359060200190929190505050612422565b005b6105df612613565b6040518082815260200191505060405180910390f35b6105fd61271e565b6040518082815260200191505060405180910390f35b61063f6004803603602081101561062957600080fd5b8101908080359060200190929190505050612723565b005b6106496128a5565b604051808273ffffffffffffffffffffffffffffffffffffffff16815260200191505060405180910390f35b61067d6128cb565b005b6106c16004803603606081101561069557600080fd5b8101908080359060200190929190803590602001909291908035151590602001909291905050506128f8565b005b6106cb612b0a565b6040518082815260200191505060405180910390f35b6106e9612b10565b005b61072d6004803603602081101561070157600080fd5b81019080803573ffffffffffffffffffffffffffffffffffffffff169060200190929190505050612c96565b6040518082815260200191505060405180910390f35b6107856004803603602081101561075957600080fd5b81019080803573ffffffffffffffffffffffffffffffffffffffff169060200190929190505050612cdf565b60405180821515815260200191505060405180910390f35b6107a5612cff565b604051808273ffffffffffffffffffffffffffffffffffffffff16815260200191505060405180910390f35b610807600480360360408110156107e757600080fd5b810190808035906020019092919080359060200190929190505050612d28565b6040518082815260200191505060405180910390f35b610825612d59565b6040518082815260200191505060405180910390f35b6108876004803603604081101561085157600080fd5b8101908080359060200190929190803573ffffffffffffffffffffffffffffffffffffffff169060200190929190505050612d5f565b604051808381526020018281526020019250505060405180910390f35b6108ac612d90565b604051808273ffffffffffffffffffffffffffffffffffffffff16815260200191505060405180910390f35b6108e0612db6565b6040518082815260200191505060405180910390f35b6109386004803603602081101561090c57600080fd5b81019080803573ffffffffffffffffffffffffffffffffffffffff169060200190929190505050612dbb565b6040518082815260200191505060405180910390f35b61097a6004803603602081101561096457600080fd5b8101908080359060200190929190505050612dd3565b005b6109b26004803603604081101561099257600080fd5b810190808035906020019092919080359060200190929190505050612f3a565b005b6109bc613269565b604051808273ffffffffffffffffffffffffffffffffffffffff16815260200191505060405180910390f35b6109f061328f565b6040518082815260200191505060405180910390f35b610a0e613295565b604051808273ffffffffffffffffffffffffffffffffffffffff16815260200191505060405180910390f35b610a7c60048036036020811015610a5057600080fd5b81019080803573ffffffffffffffffffffffffffffffffffffffff1690602001909291905050506132bb565b005b610a8661338f565b73ffffffffffffffffffffffffffffffffffffffff1660008054906101000a900473ffffffffffffffffffffffffffffffffffffffff1673ffffffffffffffffffffffffffffffffffffffff1614610b46576040517f08c379a00000000000000000000000000000000000000000000000000000000081526004018080602001828103825260208152602001807f4f776e61626c653a2063616c6c6572206973206e6f7420746865206f776e657281525060200191505060405180910390fd5b6064811115610ba0576040517f08c379a000000000000000000000000000000000000000000000000000000000815260040180806020018281038252602e815260200180613f23602e913960400191505060405180910390fd5b80600d819055507f88258d7c1f0510045362f22cdeb36a2c501ef80d7a06168881189fb8480cfe2f600d546040518082815260200191505060405180910390a150565b61040081565b6000600680549050905090565b60008060068481548110610c0657fe5b9060005260206000209060040201905060006008600086815260200190815260200160002060008573ffffffffffffffffffffffffffffffffffffffff1673ffffffffffffffffffffffffffffffffffffffff168152602001908152602001600020905060008260030154905060008360000160009054906101000a900473ffffffffffffffffffffffffffffffffffffffff1673ffffffffffffffffffffffffffffffffffffffff166370a08231306040518263ffffffff1660e01b8152600401808273ffffffffffffffffffffffffffffffffffffffff16815260200191505060206040518083038186803b158015610d0057600080fd5b505afa158015610d14573d6000803e3d6000fd5b505050506040513d6020811015610d2a57600080fd5b81019080805190602001909291905050509050836002015443118015610d51575060008114155b15610dec576000610d66856002015443612d28565b90506000610da9600954610d9b8860010154610d8d6004548761339790919063ffffffff16565b61339790919063ffffffff16565b61341d90919063ffffffff16565b9050610de7610dd884610dca64e8d4a510008561339790919063ffffffff16565b61341d90919063ffffffff16565b8561346790919063ffffffff16565b935050505b610e308360010154610e2264e8d4a51000610e1486886000015461339790919063ffffffff16565b61341d90919063ffffffff16565b6134ef90919063ffffffff16565b94505050505092915050565b60006006600081548110610e4c57fe5b9060005260206000209060040201905060006008600080815260200190815260200160002060003373ffffffffffffffffffffffffffffffffffffffff1673ffffffffffffffffffffffffffffffffffffffff16815260200190815260200160002090508281600001541015610f2a576040517f08c379a00000000000000000000000000000000000000000000000000000000081526004018080602001828103825260128152602001807f77697468647261773a206e6f7420676f6f64000000000000000000000000000081525060200191505060405180910390fd5b610f346000611fd4565b6000610f7e8260010154610f7064e8d4a51000610f628760030154876000015461339790919063ffffffff16565b61341d90919063ffffffff16565b6134ef90919063ffffffff16565b90506000811115610f9457610f933382613539565b5b60008411156111785742600160003373ffffffffffffffffffffffffffffffffffffffff1673ffffffffffffffffffffffffffffffffffffffff168152602001908152602001600020541115611052576040517f08c379a000000000000000000000000000000000000000000000000000000000815260040180806020018281038252601a8152602001807f77697468647261773a206e6f742079657420706f737369626c6500000000000081525060200191505060405180910390fd5b600061107d61271061106f600d548861339790919063ffffffff16565b61341d90919063ffffffff16565b9050600061109482876134ef90919063ffffffff16565b90506110ad8685600001546134ef90919063ffffffff16565b846000018190555061110433828760000160009054906101000a900473ffffffffffffffffffffffffffffffffffffffff1673ffffffffffffffffffffffffffffffffffffffff166135e89092919063ffffffff16565b611175600e60009054906101000a900473ffffffffffffffffffffffffffffffffffffffff16838760000160009054906101000a900473ffffffffffffffffffffffffffffffffffffffff1673ffffffffffffffffffffffffffffffffffffffff166135e89092919063ffffffff16565b50505b6111aa64e8d4a5100061119c8560030154856000015461339790919063ffffffff16565b61341d90919063ffffffff16565b8260010181905550600360009054906101000a900473ffffffffffffffffffffffffffffffffffffffff1673ffffffffffffffffffffffffffffffffffffffff16639dc29fac33866040518363ffffffff1660e01b8152600401808373ffffffffffffffffffffffffffffffffffffffff16815260200182815260200192505050600060405180830381600087803b15801561124557600080fd5b505af1158015611259573d6000803e3d6000fd5b5050505060003373ffffffffffffffffffffffffffffffffffffffff167ff960dbf9e5d0682f7a298ed974e33a28b4464914b7a2bfac12ae419a9afeb280866040518082815260200191505060405180910390a350505050565b600681815481106112c057fe5b90600052602060002090600402016000915090508060000160009054906101000a900473ffffffffffffffffffffffffffffffffffffffff16908060010154908060020154908060030154905084565b60095481565b6000806006848154811061132657fe5b9060005260206000209060040201600101549050600061135843611353864361346790919063ffffffff16565b612d28565b9050611395600954611387846113796004548661339790919063ffffffff16565b61339790919063ffffffff16565b61341d90919063ffffffff16565b9250505092915050565b6113a761338f565b73ffffffffffffffffffffffffffffffffffffffff1660008054906101000a900473ffffffffffffffffffffffffffffffffffffffff1673ffffffffffffffffffffffffffffffffffffffff1614611467576040517f08c379a00000000000000000000000000000000000000000000000000000000081526004018080602001828103825260208152602001807f4f776e61626c653a2063616c6c6572206973206e6f7420746865206f776e657281525060200191505060405180910390fd5b610400600680549050106114e3576040517f08c379a000000000000000000000000000000000000000000000000000000000815260040180806020018281038252601b8152602001807f4d6178696d616c20706f6f6c206c656e6774682072656163686564000000000081525060200191505060405180910390fd5b80156114f2576114f16128cb565b5b600760008373ffffffffffffffffffffffffffffffffffffffff1673ffffffffffffffffffffffffffffffffffffffff16815260200190815260200160002060009054906101000a900460ff1615611549576116f5565b6001600760008473ffffffffffffffffffffffffffffffffffffffff1673ffffffffffffffffffffffffffffffffffffffff16815260200190815260200160002060006101000a81548160ff0219169083151502179055506000600a5443116115b457600a546115b6565b435b90506115cd8460095461346790919063ffffffff16565b600981905550600660405180608001604052808573ffffffffffffffffffffffffffffffffffffffff1681526020018681526020018381526020016000815250908060018154018082558091505060019003906000526020600020906004020160009091909190915060008201518160000160006101000a81548173ffffffffffffffffffffffffffffffffffffffff021916908373ffffffffffffffffffffffffffffffffffffffff16021790555060208201518160010155604082015181600201556060820151816003015550506116a561368a565b8273ffffffffffffffffffffffffffffffffffffffff167ff5d252583cd714facf6cafc09e6ed202a7cb8f2ceec3d3b9102b12b0fe4d4be6856040518082815260200191505060405180910390a2505b505050565b60045481565b600b60009054906101000a900473ffffffffffffffffffffffffffffffffffffffff1673ffffffffffffffffffffffffffffffffffffffff163373ffffffffffffffffffffffffffffffffffffffff1614156117c4576040517f08c379a000000000000000000000000000000000000000000000000000000000815260040180806020018281038252601b8152602001807f737570706c6965722063616e6e6f74207374616b65206865726521000000000081525060200191505060405180910390fd5b600060066000815481106117d457fe5b9060005260206000209060040201905060006008600080815260200190815260200160002060003373ffffffffffffffffffffffffffffffffffffffff1673ffffffffffffffffffffffffffffffffffffffff16815260200190815260200160002090506118426000611fd4565b6000816000015411156118b1576000611899826001015461188b64e8d4a5100061187d8760030154876000015461339790919063ffffffff16565b61341d90919063ffffffff16565b6134ef90919063ffffffff16565b905060008111156118af576118ae3382613539565b5b505b6000831115611983576118cf600c544261346790919063ffffffff16565b600160003373ffffffffffffffffffffffffffffffffffffffff1673ffffffffffffffffffffffffffffffffffffffff168152602001908152602001600020819055506119633330858560000160009054906101000a900473ffffffffffffffffffffffffffffffffffffffff1673ffffffffffffffffffffffffffffffffffffffff16613776909392919063ffffffff16565b61197a83826000015461346790919063ffffffff16565b81600001819055505b6119b564e8d4a510006119a78460030154846000015461339790919063ffffffff16565b61341d90919063ffffffff16565b8160010181905550600360009054906101000a900473ffffffffffffffffffffffffffffffffffffffff1673ffffffffffffffffffffffffffffffffffffffff166340c10f1933856040518363ffffffff1660e01b8152600401808373ffffffffffffffffffffffffffffffffffffffff16815260200182815260200192505050600060405180830381600087803b158015611a5057600080fd5b505af1158015611a64573d6000803e3d6000fd5b5050505060003373ffffffffffffffffffffffffffffffffffffffff167f5af417134f72a9d41143ace85b0a26dce6f550f894f2cbc1eeee8810603d91b6856040518082815260200191505060405180910390a3505050565b611ac561338f565b73ffffffffffffffffffffffffffffffffffffffff1660008054906101000a900473ffffffffffffffffffffffffffffffffffffffff1673ffffffffffffffffffffffffffffffffffffffff1614611b85576040517f08c379a00000000000000000000000000000000000000000000000000000000081526004018080602001828103825260208152602001807f4f776e61626c653a2063616c6c6572206973206e6f7420746865206f776e657281525060200191505060405180910390fd5b80600b60006101000a81548173ffffffffffffffffffffffffffffffffffffffff021916908373ffffffffffffffffffffffffffffffffffffffff160217905550600b60009054906101000a900473ffffffffffffffffffffffffffffffffffffffff1673ffffffffffffffffffffffffffffffffffffffff167f759b0c0dcfcb2c6653d0101140fb17d195fcd1aa6fd12bb92a296f0f75f9bf8960405160405180910390a250565b600b60009054906101000a900473ffffffffffffffffffffffffffffffffffffffff1673ffffffffffffffffffffffffffffffffffffffff163373ffffffffffffffffffffffffffffffffffffffff161415611cf2576040517f08c379a000000000000000000000000000000000000000000000000000000000815260040180806020018281038252601b8152602001807f737570706c6965722063616e6e6f74207374616b65206865726521000000000081525060200191505060405180910390fd5b6000821415611d69576040517f08c379a000000000000000000000000000000000000000000000000000000000815260040180806020018281038252601a8152602001807f7769746864726177205041594220627920756e7374616b696e6700000000000081525060200191505060405180910390fd5b600060068381548110611d7857fe5b9060005260206000209060040201905060006008600085815260200190815260200160002060003373ffffffffffffffffffffffffffffffffffffffff1673ffffffffffffffffffffffffffffffffffffffff16815260200190815260200160002090508281600001541015611e56576040517f08c379a00000000000000000000000000000000000000000000000000000000081526004018080602001828103825260128152602001807f77697468647261773a206e6f7420676f6f64000000000000000000000000000081525060200191505060405180910390fd5b611e5f84611fd4565b6000611ea98260010154611e9b64e8d4a51000611e8d8760030154876000015461339790919063ffffffff16565b61341d90919063ffffffff16565b6134ef90919063ffffffff16565b90506000811115611ebf57611ebe3382613539565b5b6000841115611f3757611edf8483600001546134ef90919063ffffffff16565b8260000181905550611f3633858560000160009054906101000a900473ffffffffffffffffffffffffffffffffffffffff1673ffffffffffffffffffffffffffffffffffffffff166135e89092919063ffffffff16565b5b611f6964e8d4a51000611f5b8560030154856000015461339790919063ffffffff16565b61341d90919063ffffffff16565b8260010181905550843373ffffffffffffffffffffffffffffffffffffffff167ff279e6a1f5e320cca91135676d9cb6e44ca8a08c0b88342bcdb1144f6511b568866040518082815260200191505060405180910390a35050505050565b600a5481565b6203f48081565b600060068281548110611fe357fe5b9060005260206000209060040201905080600201544311612004575061241f565b60008160000160009054906101000a900473ffffffffffffffffffffffffffffffffffffffff1673ffffffffffffffffffffffffffffffffffffffff166370a08231306040518263ffffffff1660e01b8152600401808273ffffffffffffffffffffffffffffffffffffffff16815260200191505060206040518083038186803b15801561209157600080fd5b505afa1580156120a5573d6000803e3d6000fd5b505050506040513d60208110156120bb57600080fd5b8101908080519060200190929190505050905060008114156120e757438260020181905550505061241f565b60006120f7836002015443612d28565b9050600061213a60095461212c866001015461211e6004548761339790919063ffffffff16565b61339790919063ffffffff16565b61341d90919063ffffffff16565b905080600260009054906101000a900473ffffffffffffffffffffffffffffffffffffffff1673ffffffffffffffffffffffffffffffffffffffff1663dd62ed3e600b60009054906101000a900473ffffffffffffffffffffffffffffffffffffffff16306040518363ffffffff1660e01b8152600401808373ffffffffffffffffffffffffffffffffffffffff1681526020018273ffffffffffffffffffffffffffffffffffffffff1681526020019250505060206040518083038186803b15801561220657600080fd5b505afa15801561221a573d6000803e3d6000fd5b505050506040513d602081101561223057600080fd5b81019080805190602001909291905050501015612298576040517f08c379a0000000000000000000000000000000000000000000000000000000008152600401808060200182810382526025815260200180613edd6025913960400191505060405180910390fd5b600260009054906101000a900473ffffffffffffffffffffffffffffffffffffffff1673ffffffffffffffffffffffffffffffffffffffff166323b872dd600b60009054906101000a900473ffffffffffffffffffffffffffffffffffffffff16600360009054906101000a900473ffffffffffffffffffffffffffffffffffffffff16846040518463ffffffff1660e01b8152600401808473ffffffffffffffffffffffffffffffffffffffff1681526020018373ffffffffffffffffffffffffffffffffffffffff1681526020018281526020019350505050602060405180830381600087803b15801561238d57600080fd5b505af11580156123a1573d6000803e3d6000fd5b505050506040513d60208110156123b757600080fd5b8101908080519060200190929190505050506124096123f6846123e864e8d4a510008561339790919063ffffffff16565b61341d90919063ffffffff16565b856003015461346790919063ffffffff16565b8460030181905550438460020181905550505050505b50565b60006006828154811061243157fe5b9060005260206000209060040201905060006008600084815260200190815260200160002060003373ffffffffffffffffffffffffffffffffffffffff1673ffffffffffffffffffffffffffffffffffffffff168152602001908152602001600020905060008314156125545742600160003373ffffffffffffffffffffffffffffffffffffffff1673ffffffffffffffffffffffffffffffffffffffff168152602001908152602001600020541115612553576040517f08c379a000000000000000000000000000000000000000000000000000000000815260040180806020018281038252601a8152602001807f77697468647261773a206e6f742079657420706f737369626c6500000000000081525060200191505060405180910390fd5b5b6125a73382600001548460000160009054906101000a900473ffffffffffffffffffffffffffffffffffffffff1673ffffffffffffffffffffffffffffffffffffffff166135e89092919063ffffffff16565b823373ffffffffffffffffffffffffffffffffffffffff167fbb757047c2b5f3974fe26b7c10f732e7bce710b0952a71082702781e62ae059583600001546040518082815260200191505060405180910390a36000816000018190555060008160010181905550505050565b6000600260009054906101000a900473ffffffffffffffffffffffffffffffffffffffff1673ffffffffffffffffffffffffffffffffffffffff1663dd62ed3e600b60009054906101000a900473ffffffffffffffffffffffffffffffffffffffff16306040518363ffffffff1660e01b8152600401808373ffffffffffffffffffffffffffffffffffffffff1681526020018273ffffffffffffffffffffffffffffffffffffffff1681526020019250505060206040518083038186803b1580156126de57600080fd5b505afa1580156126f2573d6000803e3d6000fd5b505050506040513d602081101561270857600080fd5b8101908080519060200190929190505050905090565b600a81565b61272b61338f565b73ffffffffffffffffffffffffffffffffffffffff1660008054906101000a900473ffffffffffffffffffffffffffffffffffffffff1673ffffffffffffffffffffffffffffffffffffffff16146127eb576040517f08c379a00000000000000000000000000000000000000000000000000000000081526004018080602001828103825260208152602001807f4f776e61626c653a2063616c6c6572206973206e6f7420746865206f776e657281525060200191505060405180910390fd5b600a811115612862576040517f08c379a000000000000000000000000000000000000000000000000000000000815260040180806020018281038252601a8152602001807f546f6f2068696768206d756c7469706c696572206e756d62657200000000000081525060200191505060405180910390fd5b806005819055507f65133025d9bbc5435ecc29038d612fe52af05f4cb1149ebcf800695d4a9ffa9d6005546040518082815260200191505060405180910390a150565b600e60009054906101000a900473ffffffffffffffffffffffffffffffffffffffff1681565b6000600680549050905060005b818110156128f4576128e981611fd4565b8060010190506128d8565b5050565b61290061338f565b73ffffffffffffffffffffffffffffffffffffffff1660008054906101000a900473ffffffffffffffffffffffffffffffffffffffff1673ffffffffffffffffffffffffffffffffffffffff16146129c0576040517f08c379a00000000000000000000000000000000000000000000000000000000081526004018080602001828103825260208152602001807f4f776e61626c653a2063616c6c6572206973206e6f7420746865206f776e657281525060200191505060405180910390fd5b6006805490508310612a3a576040517f08c379a00000000000000000000000000000000000000000000000000000000081526004018080602001828103825260148152602001807f506f6f6c206964206f7574206f662072616e676500000000000000000000000081525060200191505060405180910390fd5b8015612a4957612a486128cb565b5b600060068481548110612a5857fe5b90600052602060002090600402016001015490508260068581548110612a7a57fe5b906000526020600020906004020160010181905550828114612acc57612abd83612aaf836009546134ef90919063ffffffff16565b61346790919063ffffffff16565b600981905550612acb61368a565b5b837fc0cfd54d2de2b55f1e6e108d3ec53ff0a1abe6055401d32c61e9433b747ef9f8846040518082815260200191505060405180910390a250505050565b60055481565b612b1861338f565b73ffffffffffffffffffffffffffffffffffffffff1660008054906101000a900473ffffffffffffffffffffffffffffffffffffffff1673ffffffffffffffffffffffffffffffffffffffff1614612bd8576040517f08c379a00000000000000000000000000000000000000000000000000000000081526004018080602001828103825260208152602001807f4f776e61626c653a2063616c6c6572206973206e6f7420746865206f776e657281525060200191505060405180910390fd5b600073ffffffffffffffffffffffffffffffffffffffff1660008054906101000a900473ffffffffffffffffffffffffffffffffffffffff1673ffffffffffffffffffffffffffffffffffffffff167f8be0079c531659141344cd1fd0a4f28419497f9722a3daafe3b4186f6b6457e060405160405180910390a360008060006101000a81548173ffffffffffffffffffffffffffffffffffffffff021916908373ffffffffffffffffffffffffffffffffffffffff160217905550565b6000600160008373ffffffffffffffffffffffffffffffffffffffff1673ffffffffffffffffffffffffffffffffffffffff168152602001908152602001600020549050919050565b60076020528060005260406000206000915054906101000a900460ff1681565b60008060009054906101000a900473ffffffffffffffffffffffffffffffffffffffff16905090565b6000612d51600554612d4385856134ef90919063ffffffff16565b61339790919063ffffffff16565b905092915050565b600d5481565b6008602052816000526040600020602052806000526040600020600091509150508060000154908060010154905082565b600260009054906101000a900473ffffffffffffffffffffffffffffffffffffffff1681565b606481565b60016020528060005260406000206000915090505481565b612ddb61338f565b73ffffffffffffffffffffffffffffffffffffffff1660008054906101000a900473ffffffffffffffffffffffffffffffffffffffff1673ffffffffffffffffffffffffffffffffffffffff1614612e9b576040517f08c379a00000000000000000000000000000000000000000000000000000000081526004018080602001828103825260208152602001807f4f776e61626c653a2063616c6c6572206973206e6f7420746865206f776e657281525060200191505060405180910390fd5b6203f480811115612ef7576040517f08c379a0000000000000000000000000000000000000000000000000000000008152600401808060200182810382526034815260200180613e596034913960400191505060405180910390fd5b80600c819055507f7c3a78b24f80f501db507bb2fd620a9a5400d371112cc8e13027977f36eb0b1a600c546040518082815260200191505060405180910390a150565b600b60009054906101000a900473ffffffffffffffffffffffffffffffffffffffff1673ffffffffffffffffffffffffffffffffffffffff163373ffffffffffffffffffffffffffffffffffffffff161415612ffe576040517f08c379a000000000000000000000000000000000000000000000000000000000815260040180806020018281038252601b8152602001807f737570706c6965722063616e6e6f74207374616b65206865726521000000000081525060200191505060405180910390fd5b6000821415613075576040517f08c379a00000000000000000000000000000000000000000000000000000000081526004018080602001828103825260178152602001807f6465706f7369742050415942206279207374616b696e6700000000000000000081525060200191505060405180910390fd5b60006006838154811061308457fe5b9060005260206000209060040201905060006008600085815260200190815260200160002060003373ffffffffffffffffffffffffffffffffffffffff1673ffffffffffffffffffffffffffffffffffffffff16815260200190815260200160002090506130f184611fd4565b600081600001541115613160576000613148826001015461313a64e8d4a5100061312c8760030154876000015461339790919063ffffffff16565b61341d90919063ffffffff16565b6134ef90919063ffffffff16565b9050600081111561315e5761315d3382613539565b5b505b60008311156131da576131ba3330858560000160009054906101000a900473ffffffffffffffffffffffffffffffffffffffff1673ffffffffffffffffffffffffffffffffffffffff16613776909392919063ffffffff16565b6131d183826000015461346790919063ffffffff16565b81600001819055505b61320c64e8d4a510006131fe8460030154846000015461339790919063ffffffff16565b61341d90919063ffffffff16565b8160010181905550833373ffffffffffffffffffffffffffffffffffffffff167f90890809c654f11d6e72a28fa60149770a0d11ec6c92319d6ceb2bb0a4ea1a15856040518082815260200191505060405180910390a350505050565b600b60009054906101000a900473ffffffffffffffffffffffffffffffffffffffff1681565b600c5481565b600360009054906101000a900473ffffffffffffffffffffffffffffffffffffffff1681565b6132c361338f565b73ffffffffffffffffffffffffffffffffffffffff1660008054906101000a900473ffffffffffffffffffffffffffffffffffffffff1673ffffffffffffffffffffffffffffffffffffffff1614613383576040517f08c379a00000000000000000000000000000000000000000000000000000000081526004018080602001828103825260208152602001807f4f776e61626c653a2063616c6c6572206973206e6f7420746865206f776e657281525060200191505060405180910390fd5b61338c81613837565b50565b600033905090565b6000808314156133aa5760009050613417565b60008284029050828482816133bb57fe5b0414613412576040517f08c379a0000000000000000000000000000000000000000000000000000000008152600401808060200182810382526021815260200180613f026021913960400191505060405180910390fd5b809150505b92915050565b600061345f83836040518060400160405280601a81526020017f536166654d6174683a206469766973696f6e206279207a65726f00000000000081525061397a565b905092915050565b6000808284019050838110156134e5576040517f08c379a000000000000000000000000000000000000000000000000000000000815260040180806020018281038252601b8152602001807f536166654d6174683a206164646974696f6e206f766572666c6f77000000000081525060200191505060405180910390fd5b8091505092915050565b600061353183836040518060400160405280601e81526020017f536166654d6174683a207375627472616374696f6e206f766572666c6f770000815250613a40565b905092915050565b600360009054906101000a900473ffffffffffffffffffffffffffffffffffffffff1673ffffffffffffffffffffffffffffffffffffffff166382a0262183836040518363ffffffff1660e01b8152600401808373ffffffffffffffffffffffffffffffffffffffff16815260200182815260200192505050600060405180830381600087803b1580156135cc57600080fd5b505af11580156135e0573d6000803e3d6000fd5b505050505050565b6136858363a9059cbb60e01b8484604051602401808373ffffffffffffffffffffffffffffffffffffffff16815260200182815260200192505050604051602081830303815290604052907bffffffffffffffffffffffffffffffffffffffffffffffffffffffff19166020820180517bffffffffffffffffffffffffffffffffffffffffffffffffffffffff8381831617835250505050613b00565b505050565b60006006805490509050600080600190505b828110156136e2576136d5600682815481106136b457fe5b9060005260206000209060040201600101548361346790919063ffffffff16565b915080600101905061369c565b5060008114613772576136ff60038261341d90919063ffffffff16565b905061374781613739600660008154811061371657fe5b9060005260206000209060040201600101546009546134ef90919063ffffffff16565b61346790919063ffffffff16565b60098190555080600660008154811061375c57fe5b9060005260206000209060040201600101819055505b5050565b613831846323b872dd60e01b858585604051602401808473ffffffffffffffffffffffffffffffffffffffff1681526020018373ffffffffffffffffffffffffffffffffffffffff1681526020018281526020019350505050604051602081830303815290604052907bffffffffffffffffffffffffffffffffffffffffffffffffffffffff19166020820180517bffffffffffffffffffffffffffffffffffffffffffffffffffffffff8381831617835250505050613b00565b50505050565b600073ffffffffffffffffffffffffffffffffffffffff168173ffffffffffffffffffffffffffffffffffffffff1614156138bd576040517f08c379a0000000000000000000000000000000000000000000000000000000008152600401808060200182810382526026815260200180613eb76026913960400191505060405180910390fd5b8073ffffffffffffffffffffffffffffffffffffffff1660008054906101000a900473ffffffffffffffffffffffffffffffffffffffff1673ffffffffffffffffffffffffffffffffffffffff167f8be0079c531659141344cd1fd0a4f28419497f9722a3daafe3b4186f6b6457e060405160405180910390a3806000806101000a81548173ffffffffffffffffffffffffffffffffffffffff021916908373ffffffffffffffffffffffffffffffffffffffff16021790555050565b60008083118290613a26576040517f08c379a00000000000000000000000000000000000000000000000000000000081526004018080602001828103825283818151815260200191508051906020019080838360005b838110156139eb5780820151818401526020810190506139d0565b50505050905090810190601f168015613a185780820380516001836020036101000a031916815260200191505b509250505060405180910390fd5b506000838581613a3257fe5b049050809150509392505050565b6000838311158290613aed576040517f08c379a00000000000000000000000000000000000000000000000000000000081526004018080602001828103825283818151815260200191508051906020019080838360005b83811015613ab2578082015181840152602081019050613a97565b50505050905090810190601f168015613adf5780820380516001836020036101000a031916815260200191505b509250505060405180910390fd5b5060008385039050809150509392505050565b6060613b62826040518060400160405280602081526020017f5361666542455032303a206c6f772d6c6576656c2063616c6c206661696c65648152508573ffffffffffffffffffffffffffffffffffffffff16613bef9092919063ffffffff16565b9050600081511115613bea57808060200190516020811015613b8357600080fd5b8101908080519060200190929190505050613be9576040517f08c379a000000000000000000000000000000000000000000000000000000000815260040180806020018281038252602a815260200180613e8d602a913960400191505060405180910390fd5b5b505050565b6060613bfe8484600085613c07565b90509392505050565b6060613c1285613e0d565b613c84576040517f08c379a000000000000000000000000000000000000000000000000000000000815260040180806020018281038252601d8152602001807f416464726573733a2063616c6c20746f206e6f6e2d636f6e747261637400000081525060200191505060405180910390fd5b600060608673ffffffffffffffffffffffffffffffffffffffff1685876040518082805190602001908083835b60208310613cd45780518252602082019150602081019050602083039250613cb1565b6001836020036101000a03801982511681845116808217855250505050505090500191505060006040518083038185875af1925050503d8060008114613d36576040519150601f19603f3d011682016040523d82523d6000602084013e613d3b565b606091505b50915091508115613d50578092505050613e05565b600081511115613d635780518082602001fd5b836040517f08c379a00000000000000000000000000000000000000000000000000000000081526004018080602001828103825283818151815260200191508051906020019080838360005b83811015613dca578082015181840152602081019050613daf565b50505050905090810190601f168015613df75780820380516001836020036101000a031916815260200191505b509250505060405180910390fd5b949350505050565b60008060007fc5d2460186f7233c927e7db2dcc703c0e500b653ca82273b7bfad8045d85a47060001b9050833f9150808214158015613e4f57506000801b8214155b9250505091905056fe756e7374616b65506572696f642063616e6e6f74206265206d6f7265207468616e204d41585f554e5354414b455f504552494f445361666542455032303a204245503230206f7065726174696f6e20646964206e6f7420737563636565644f776e61626c653a206e6577206f776e657220697320746865207a65726f20616464726573736e6f7420656e6f756768207061796220617070726f766564206f6e20636f6e747261637421536166654d6174683a206d756c7469706c69636174696f6e206f766572666c6f77756e7374616b654665652063616e6e6f74206265206d6f7265207468616e204d41585f554e5354414b455f464545a26469706673582212204f7fcd15cf2af30055f1a803da81f5dc5e27505587d684d7df2bec5524b19fd764736f6c634300060c0033",
  "immutableReferences": {},
  "source": "// SPDX-License-Identifier: MIT\npragma solidity 0.6.12;\n\nimport '@pancakeswap/pancake-swap-lib/contracts/math/SafeMath.sol';\nimport '@pancakeswap/pancake-swap-lib/contracts/token/BEP20/IBEP20.sol';\nimport '@pancakeswap/pancake-swap-lib/contracts/token/BEP20/SafeBEP20.sol';\nimport '@pancakeswap/pancake-swap-lib/contracts/access/Ownable.sol';\n\nimport './PaybVirtualToken.sol';\n\n// Main contract for farming and staking\ncontract MasterVault is Ownable {\n    using SafeMath for uint256;\n    using SafeBEP20 for IBEP20;\n\n    // Info of each user.\n    struct UserInfo {\n        uint256 amount;     // How many LP tokens the user has provided.\n        uint256 rewardDebt; // Reward debt. See explanation below.\n        //\n        // We do some fancy math here. Basically, any point in time, the amount of PAYBs\n        // entitled to a user but is pending to be distributed is:\n        //\n        //   pending reward = (user.amount * pool.accCakePerShare) - user.rewardDebt\n        //\n        // Whenever a user deposits or withdraws LP tokens to a pool. Here's what happens:\n        //   1. The pool's `accCakePerShare` (and `lastRewardBlock`) gets updated.\n        //   2. User receives the pending reward sent to his/her address.\n        //   3. User's `amount` gets updated.\n        //   4. User's `rewardDebt` gets updated.\n    }\n\n    mapping(address => uint256) public cooldownPeriodEnd;\n\n    // Info of each pool.\n    struct PoolInfo {\n        IBEP20 lpToken;           // Address of LP token contract.\n        uint256 allocPoint;       // How many allocation points assigned to this pool. PAYBs to distribute per block.\n        uint256 lastRewardBlock;  // Last block number that PAYBs distribution occurs.\n        uint256 accPaybPerShare; // Accumulated PAYBs per share, times 1e12. See below.\n    }\n\n    // The PAYB TOKEN!\n    IBEP20 public payb;\n    // The PaybVirtualToken TOKEN!\n    PaybVirtualToken public paybVirtual;\n    // PAYB tokens created per block.\n    uint256 public paybPerBlock;\n    // Muliplier for payb makers.\n    uint256 public rewardMultiplier = 1;\n\n    // Info of each pool.\n    PoolInfo[] public poolInfo;\n    // Mapping for pool tokens existance\n    mapping(address => bool) public poolExistance;\n    // Info of each user that stakes LP tokens.\n    mapping (uint256 => mapping (address => UserInfo)) public userInfo;\n    // Total allocation points. Must be the sum of all allocation points in all pools.\n    uint256 public totalAllocPoint = 0;\n    // The block number when PAYB mining starts.\n    uint256 public startBlock;\n\n    // Maximal rewardMultiplier for payb makers.\n    uint256 public constant MAX_MULTIPLIER = 10;\n\n    // Maximal pool length\n    uint256 public constant MAX_POOL_LENGTH = 1024;\n\n    // Maximal unstake time\n    uint256 public constant MAX_UNSTAKE_PERIOD = 72 hours;\n\n    // Maximal unstake fee\n    uint256 public constant MAX_UNSTAKE_FEE = 100; // 1%\n\n    // Address of master token supplier\n    address public masterSupplier;\n\n    // Cooldown period for unstaking\n    uint256 public unstakePeriod;\n\n    // Fee for unstaking\n    uint256 public unstakeFee;\n\n    // Fee collector\n    address public treasury;\n\n    event Deposit(address indexed user, uint256 indexed pid, uint256 amount);\n    event Withdraw(address indexed user, uint256 indexed pid, uint256 amount);\n    event Stake(address indexed user, uint256 indexed pid, uint256 amount);\n    event Unstake(address indexed user, uint256 indexed pid, uint256 amount);\n    event EmergencyWithdraw(address indexed user, uint256 indexed pid, uint256 amount);\n    event SupplierUpdate(address indexed supplier);\n    event MultiplierUpdate(uint256 multiplier);\n    event FeeUpdate(uint256 fee);\n    event PeriodUpdate(uint256 period);\n    event AddPool(address indexed token, uint256 points);\n    event SetPool(uint256 indexed pid, uint256 points);\n\n    constructor(\n        IBEP20 _payb,\n        PaybVirtualToken _paybVirtual,\n        uint256 _paybPerBlock,\n        uint256 _startBlock,\n        address _treasury\n    ) public {\n        payb = _payb;\n        paybVirtual = _paybVirtual;\n        paybPerBlock = _paybPerBlock;\n        startBlock = _startBlock;\n        unstakePeriod = MAX_UNSTAKE_PERIOD;\n        unstakeFee = MAX_UNSTAKE_FEE;\n        treasury = _treasury;\n        // staking pool\n        poolInfo.push(PoolInfo({\n            lpToken: _payb,\n            allocPoint: 1000,\n            lastRewardBlock: startBlock,\n            accPaybPerShare: 0\n        }));\n        totalAllocPoint = 1000;\n    }\n\n    modifier supplierExcluded() {\n        require(msg.sender != masterSupplier, 'supplier cannot stake here!');\n        _;\n    }\n\n    function updateMasterSupplier(address newSupplier) external onlyOwner {\n        masterSupplier = newSupplier;\n        emit SupplierUpdate(masterSupplier);\n    }\n\n    function updateMultiplier(uint256 multiplierNumber) external onlyOwner {\n        require(multiplierNumber <= MAX_MULTIPLIER, 'Too high multiplier number');\n        rewardMultiplier = multiplierNumber;\n        emit MultiplierUpdate(rewardMultiplier);\n    }\n\n    // Sets unstake period, only callable by owner\n    function setUnstakePeriod(uint256 _unstakePeriod) external onlyOwner {\n        require(\n            _unstakePeriod <= MAX_UNSTAKE_PERIOD,\n            'unstakePeriod cannot be more than MAX_UNSTAKE_PERIOD'\n        );\n        unstakePeriod = _unstakePeriod;\n        emit PeriodUpdate(unstakePeriod);\n    }\n\n    // Sets unstake fee, only callable by owner\n    function setUnstakeFee(uint256 _unstakeFee) external onlyOwner {\n        require(\n            _unstakeFee <= MAX_UNSTAKE_FEE,\n            'unstakeFee cannot be more than MAX_UNSTAKE_FEE'\n        );\n        unstakeFee = _unstakeFee;\n        emit FeeUpdate(unstakeFee);\n    }\n\n    // Add a new lp to the pool. Can only be called by the owner.\n    // Will not allow to add the same LP token more than once.\n    function add(uint256 _allocPoint, IBEP20 _lpToken, bool _withUpdate) external onlyOwner {\n        require(poolInfo.length < MAX_POOL_LENGTH, 'Maximal pool length reached');\n        if (_withUpdate) {\n            massUpdatePools();\n        }\n        if (poolExistance[address(_lpToken)]) {\n            return;\n        }\n        else {\n            poolExistance[address(_lpToken)] = true;\n        }\n\n        uint256 lastRewardBlock = block.number > startBlock ? block.number : startBlock;\n        totalAllocPoint = totalAllocPoint.add(_allocPoint);\n        poolInfo.push(PoolInfo({\n            lpToken: _lpToken,\n            allocPoint: _allocPoint,\n            lastRewardBlock: lastRewardBlock,\n            accPaybPerShare: 0\n        }));\n        updateStakingPool();\n        emit AddPool(address(_lpToken), _allocPoint);\n    }\n\n    // Update the given pool's PAYB allocation point. Can only be called by the owner.\n    function set(uint256 _pid, uint256 _allocPoint, bool _withUpdate) external onlyOwner {\n        require(_pid < poolInfo.length, 'Pool id out of range');\n        if (_withUpdate) {\n            massUpdatePools();\n        }\n        uint256 prevAllocPoint = poolInfo[_pid].allocPoint;\n        poolInfo[_pid].allocPoint = _allocPoint;\n        if (prevAllocPoint != _allocPoint) {\n            totalAllocPoint = totalAllocPoint.sub(prevAllocPoint).add(_allocPoint);\n            updateStakingPool();\n        }\n        emit SetPool(_pid, _allocPoint);\n    }\n\n    // Deposit LP tokens to MasterVault for PAYB allocation.\n    function deposit(uint256 _pid, uint256 _amount) external supplierExcluded{\n        require (_pid != 0, 'deposit PAYB by staking');\n        PoolInfo storage pool = poolInfo[_pid];\n        UserInfo storage user = userInfo[_pid][msg.sender];\n        updatePool(_pid);\n        if (user.amount > 0) {\n            uint256 pending = user.amount.mul(pool.accPaybPerShare).div(1e12).sub(user.rewardDebt);\n            if(pending > 0) {\n                safePaybTransfer(msg.sender, pending);\n            }\n        }\n        if (_amount > 0) {\n            pool.lpToken.safeTransferFrom(address(msg.sender), address(this), _amount);\n            user.amount = user.amount.add(_amount);\n        }\n        user.rewardDebt = user.amount.mul(pool.accPaybPerShare).div(1e12);\n        emit Deposit(msg.sender, _pid, _amount);\n    }\n\n    // Withdraw LP tokens from MasterVault.\n    function withdraw(uint256 _pid, uint256 _amount) external supplierExcluded {\n        require (_pid != 0, 'withdraw PAYB by unstaking');\n        PoolInfo storage pool = poolInfo[_pid];\n        UserInfo storage user = userInfo[_pid][msg.sender];\n        require(user.amount >= _amount, 'withdraw: not good');\n        updatePool(_pid);\n        uint256 pending = user.amount.mul(pool.accPaybPerShare).div(1e12).sub(user.rewardDebt);\n        if(pending > 0) {\n            safePaybTransfer(msg.sender, pending);\n        }\n        if(_amount > 0) {\n            user.amount = user.amount.sub(_amount);\n            pool.lpToken.safeTransfer(address(msg.sender), _amount);\n        }\n        user.rewardDebt = user.amount.mul(pool.accPaybPerShare).div(1e12);\n        emit Withdraw(msg.sender, _pid, _amount);\n    }\n\n    // Stake PAYB tokens to MasterVault\n    function enterStaking(uint256 _amount) external supplierExcluded {\n        PoolInfo storage pool = poolInfo[0];\n        UserInfo storage user = userInfo[0][msg.sender];\n        updatePool(0);\n        if (user.amount > 0) {\n            uint256 pending = user.amount.mul(pool.accPaybPerShare).div(1e12).sub(user.rewardDebt);\n            if(pending > 0) {\n                safePaybTransfer(msg.sender, pending);\n            }\n        }\n        if(_amount > 0) {\n            cooldownPeriodEnd[msg.sender] = block.timestamp.add(unstakePeriod);\n            pool.lpToken.safeTransferFrom(address(msg.sender), address(this), _amount);\n            user.amount = user.amount.add(_amount);\n        }\n        user.rewardDebt = user.amount.mul(pool.accPaybPerShare).div(1e12);\n\n        paybVirtual.mint(msg.sender, _amount);\n        emit Stake(msg.sender, 0, _amount);\n    }\n\n    function poolLength() external view returns (uint256) {\n        return poolInfo.length;\n    }\n\n    // Withdraw PAYB tokens from STAKING.\n    function leaveStaking(uint256 _amount) external {\n        PoolInfo storage pool = poolInfo[0];\n        UserInfo storage user = userInfo[0][msg.sender];\n        require(user.amount >= _amount, 'withdraw: not good');\n        updatePool(0);\n        uint256 pending = user.amount.mul(pool.accPaybPerShare).div(1e12).sub(user.rewardDebt);\n        if(pending > 0) {\n            safePaybTransfer(msg.sender, pending);\n        }\n        if(_amount > 0) {\n            require(cooldownPeriodEnd[msg.sender] <= block.timestamp, 'withdraw: not yet possible');\n            uint256 fee = _amount.mul(unstakeFee).div(10000);\n            uint256 userReturn = _amount.sub(fee);\n            user.amount = user.amount.sub(_amount);\n            pool.lpToken.safeTransfer(address(msg.sender), userReturn);\n            pool.lpToken.safeTransfer(address(treasury), fee);\n        }\n        user.rewardDebt = user.amount.mul(pool.accPaybPerShare).div(1e12);\n\n        paybVirtual.burn(msg.sender, _amount);\n        emit Unstake(msg.sender, 0, _amount);\n    }\n\n    // Withdraw without caring about rewards. EMERGENCY ONLY.\n    function emergencyWithdraw(uint256 _pid) external {\n        PoolInfo storage pool = poolInfo[_pid];\n        UserInfo storage user = userInfo[_pid][msg.sender];\n        if(_pid == 0) {\n            require(cooldownPeriodEnd[msg.sender] <= block.timestamp, 'withdraw: not yet possible');\n        }\n        pool.lpToken.safeTransfer(address(msg.sender), user.amount);\n        emit EmergencyWithdraw(msg.sender, _pid, user.amount);\n        user.amount = 0;\n        user.rewardDebt = 0;\n    }\n    \n    // Additional time interface for easier integration\n    function timeToLeaveStaking(address user) view external returns (uint256){\n        return cooldownPeriodEnd[user];\n    }\n\n    // View function to see pending PAYBs on frontend.\n    function pendingPayb(uint256 _pid, address _user) view external returns (uint256) {\n        PoolInfo storage pool = poolInfo[_pid];\n        UserInfo storage user = userInfo[_pid][_user];\n        uint256 accPaybPerShare = pool.accPaybPerShare;\n        uint256 lpSupply = pool.lpToken.balanceOf(address(this));\n        if (block.number > pool.lastRewardBlock && lpSupply != 0) {\n            uint256 multiplier = getMultiplier(pool.lastRewardBlock, block.number);\n            uint256 paybReward = multiplier.mul(paybPerBlock).mul(pool.allocPoint).div(totalAllocPoint);\n            accPaybPerShare = accPaybPerShare.add(paybReward.mul(1e12).div(lpSupply));\n        }\n        return user.amount.mul(accPaybPerShare).div(1e12).sub(user.rewardDebt);\n    }\n\n    // Current supplier allowance for Payb \n    function currentSupplierAllowance() view external returns (uint256) {\n        return payb.allowance(address(masterSupplier), address(this));\n    }\n\n    // Additional return estimation for easier integration\n    // Average block time on Binance Smart Chain is 3s\n    // Estimated daily return would be calculated over 28 800 blocks\n    function getPoolInvervalReturn(uint256 poolNum, uint256 blocks) view external returns (uint256){\n        uint256 poolPoints = poolInfo[poolNum].allocPoint;\n        uint256 multiplier = getMultiplier(block.number, block.number.add(blocks));\n        return multiplier.mul(paybPerBlock).mul(poolPoints).div(totalAllocPoint);\n    }\n\n    // Update reward variables for all pools. Be careful of gas spending!\n    function massUpdatePools() public {\n        uint256 length = poolInfo.length;\n        for (uint256 pid = 0; pid < length; ++pid) {\n            updatePool(pid);\n        }\n    }\n\n    // Update reward variables of the given pool to be up-to-date.\n    function updatePool(uint256 _pid) public {\n        PoolInfo storage pool = poolInfo[_pid];\n        if (block.number <= pool.lastRewardBlock) {\n            return;\n        }\n        uint256 lpSupply = pool.lpToken.balanceOf(address(this));\n        if (lpSupply == 0) {\n            pool.lastRewardBlock = block.number;\n            return;\n        }\n        uint256 multiplier = getMultiplier(pool.lastRewardBlock, block.number);\n        uint256 paybReward = multiplier.mul(paybPerBlock).mul(pool.allocPoint).div(totalAllocPoint);\n        require(payb.allowance(address(masterSupplier), address(this)) >= paybReward, 'not enough payb approved on contract!');\n        payb.transferFrom(address(masterSupplier), address(paybVirtual), paybReward);\n        pool.accPaybPerShare = pool.accPaybPerShare.add(paybReward.mul(1e12).div(lpSupply));\n        pool.lastRewardBlock = block.number;\n    }\n\n    // Return reward multiplier over the given _from to _to block.\n    function getMultiplier(uint256 _from, uint256 _to) public view returns (uint256) {\n        return _to.sub(_from).mul(rewardMultiplier);\n    }\n\n    function updateStakingPool() internal {\n        uint256 length = poolInfo.length;\n        uint256 points = 0;\n        for (uint256 pid = 1; pid < length; ++pid) {\n            points = points.add(poolInfo[pid].allocPoint);\n        }\n        if (points != 0) {\n            points = points.div(3);\n            totalAllocPoint = totalAllocPoint.sub(poolInfo[0].allocPoint).add(points);\n            poolInfo[0].allocPoint = points;\n        }\n    }\n\n    // Safe payb transfer function, just in case if rounding error causes pool to not have enough PAYBs.\n    function safePaybTransfer(address _to, uint256 _amount) internal {\n        paybVirtual.safePaybTransfer(_to, _amount);\n    }\n}\n",
  "sourcePath": "/mnt/e/Projects/paybswap-blockchain/farm/contracts/MasterVault.sol",
  "compiler": {
    "name": "solc",
    "version": "0.6.12+commit.27d51765.Emscripten.clang"
  },
  "schemaVersion": "3.4.1",
  "updatedAt": "2021-07-08T09:46:22.830Z",
  "devdoc": {
    "kind": "dev",
    "methods": {
      "owner()": {
        "details": "Returns the address of the current owner."
      },
      "renounceOwnership()": {
        "details": "Leaves the contract without owner. It will not be possible to call `onlyOwner` functions anymore. Can only be called by the current owner. NOTE: Renouncing ownership will leave the contract without an owner, thereby removing any functionality that is only available to the owner."
      },
      "transferOwnership(address)": {
        "details": "Transfers ownership of the contract to a new account (`newOwner`). Can only be called by the current owner."
      }
    },
    "version": 1
  },
  "userdoc": {
    "kind": "user",
    "methods": {},
    "version": 1
  }
}